{
  "_format": "hh-sol-artifact-1",
  "contractName": "JpynOracle",
  "sourceName": "contracts/JpynOracle.sol",
  "abi": [
    {
      "inputs": [],
      "stateMutability": "nonpayable",
      "type": "constructor"
    },
    {
      "inputs": [
        {
          "internalType": "address",
          "name": "sender",
          "type": "address"
        }
      ],
      "name": "ExistingAdmin",
      "type": "error"
    },
    {
      "inputs": [
        {
          "internalType": "address",
          "name": "sender",
          "type": "address"
        }
      ],
      "name": "ExistingOracle",
      "type": "error"
    },
    {
      "inputs": [
        {
          "internalType": "uint256",
          "name": "totalAdminCount",
          "type": "uint256"
        },
        {
          "internalType": "uint256",
          "name": "minAdminCount",
          "type": "uint256"
        },
        {
          "internalType": "address",
          "name": "sender",
          "type": "address"
        }
      ],
      "name": "NotEnoughAdmins",
      "type": "error"
    },
    {
      "inputs": [
        {
          "internalType": "uint256",
          "name": "totalOracleCount",
          "type": "uint256"
        },
        {
          "internalType": "uint256",
          "name": "minOracleCount",
          "type": "uint256"
        },
        {
          "internalType": "address",
          "name": "sender",
          "type": "address"
        }
      ],
      "name": "NotEnoughOracles",
      "type": "error"
    },
    {
      "inputs": [
        {
          "internalType": "address",
          "name": "sender",
          "type": "address"
        }
      ],
      "name": "NotExistingAdmin",
      "type": "error"
    },
    {
      "inputs": [
        {
          "internalType": "address",
          "name": "sender",
          "type": "address"
        }
      ],
      "name": "NotExistingOrracle",
      "type": "error"
    },
    {
      "inputs": [
        {
          "internalType": "address",
          "name": "sender",
          "type": "address"
        }
      ],
      "name": "OnlyAdmin",
      "type": "error"
    },
    {
      "inputs": [
        {
          "internalType": "address",
          "name": "sender",
          "type": "address"
        }
      ],
      "name": "OnlyOracle",
      "type": "error"
    },
    {
      "anonymous": false,
      "inputs": [
        {
          "indexed": false,
          "internalType": "uint256",
          "name": "id",
          "type": "uint256"
        },
        {
          "indexed": false,
          "internalType": "string",
          "name": "hashedAccount",
          "type": "string"
        }
      ],
      "name": "NewRequest",
      "type": "event"
    },
    {
      "anonymous": false,
      "inputs": [
        {
          "indexed": false,
          "internalType": "uint256",
          "name": "id",
          "type": "uint256"
        },
        {
          "indexed": false,
          "internalType": "string",
          "name": "hashedAccount",
          "type": "string"
        },
        {
          "indexed": false,
          "internalType": "uint256",
          "name": "agreedAccountStatus",
          "type": "uint256"
        },
        {
          "indexed": false,
          "internalType": "uint256",
          "name": "agreedAccountBalance",
          "type": "uint256"
        }
      ],
      "name": "UpdatedRequest",
      "type": "event"
    },
    {
      "inputs": [
        {
          "internalType": "address",
          "name": "sender",
          "type": "address"
        }
      ],
      "name": "addOracle",
      "outputs": [],
      "stateMutability": "nonpayable",
      "type": "function"
    },
    {
      "inputs": [
        {
          "internalType": "string",
          "name": "_hashedAccount",
          "type": "string"
        }
      ],
      "name": "createRequest",
      "outputs": [
        {
          "internalType": "uint256",
          "name": "",
          "type": "uint256"
        }
      ],
      "stateMutability": "nonpayable",
      "type": "function"
    },
    {
      "inputs": [],
      "name": "getCurrentOracleId",
      "outputs": [
        {
          "internalType": "uint256",
          "name": "",
          "type": "uint256"
        }
      ],
      "stateMutability": "view",
      "type": "function"
    },
    {
      "inputs": [],
      "name": "getCurrentRequestId",
      "outputs": [
        {
          "internalType": "uint256",
          "name": "",
          "type": "uint256"
        }
      ],
      "stateMutability": "view",
      "type": "function"
    },
    {
      "inputs": [],
      "name": "getMinQuorum",
      "outputs": [
        {
          "internalType": "uint256",
          "name": "",
          "type": "uint256"
        }
      ],
      "stateMutability": "view",
      "type": "function"
    },
    {
      "inputs": [
        {
          "internalType": "uint256",
          "name": "_id",
          "type": "uint256"
        }
      ],
      "name": "getRequest",
      "outputs": [
        {
          "components": [
            {
              "internalType": "uint256",
              "name": "id",
              "type": "uint256"
            },
            {
              "internalType": "uint256",
              "name": "accountStatus",
              "type": "uint256"
            },
            {
              "internalType": "uint256",
              "name": "accountBalance",
              "type": "uint256"
            }
          ],
          "internalType": "struct JpynOracle.GetRequest",
          "name": "",
          "type": "tuple"
        }
      ],
      "stateMutability": "view",
      "type": "function"
    },
    {
      "inputs": [],
      "name": "getTotalOracleCount",
      "outputs": [
        {
          "internalType": "uint256",
          "name": "",
          "type": "uint256"
        }
      ],
      "stateMutability": "view",
      "type": "function"
    },
    {
      "inputs": [
        {
          "internalType": "address",
          "name": "_sender",
          "type": "address"
        }
      ],
      "name": "isOracle",
      "outputs": [
        {
          "internalType": "bool",
          "name": "",
          "type": "bool"
        }
      ],
      "stateMutability": "view",
      "type": "function"
    },
    {
      "inputs": [
        {
          "internalType": "address",
          "name": "sender",
          "type": "address"
        }
      ],
      "name": "removeOracle",
      "outputs": [],
      "stateMutability": "nonpayable",
      "type": "function"
    },
    {
      "inputs": [
        {
          "internalType": "uint256",
          "name": "_id",
          "type": "uint256"
        },
        {
          "internalType": "uint256",
          "name": "_valueAccountStatus",
          "type": "uint256"
        },
        {
          "internalType": "uint256",
          "name": "_valueAccountBalance",
          "type": "uint256"
        }
      ],
      "name": "updateRequest",
      "outputs": [],
      "stateMutability": "nonpayable",
      "type": "function"
    }
  ],
  "bytecode": "0x608060405234801561001057600080fd5b5060006003819055506000600481905550600060058190555060006006819055506003600781905550611450806100486000396000f3fe608060405234801561001057600080fd5b506004361061009e5760003560e01c8063a9b3bfa911610066578063a9b3bfa91461015d578063ab49c7741461017b578063c58343ef14610197578063df5dd1a5146101c7578063fdc85fc4146101e35761009e565b806315cd1841146100a35780631b146ecf146100c15780636478cf93146100f15780636cd17d6e1461010f578063a97e5c931461012d575b600080fd5b6100ab6101ff565b6040516100b89190610aeb565b60405180910390f35b6100db60048036038101906100d69190610c60565b610209565b6040516100e89190610aeb565b60405180910390f35b6100f9610416565b6040516101069190610aeb565b60405180910390f35b610117610420565b6040516101249190610aeb565b60405180910390f35b61014760048036038101906101429190610d07565b61042a565b6040516101549190610d4f565b60405180910390f35b610165610480565b6040516101729190610aeb565b60405180910390f35b61019560048036038101906101909190610d96565b61048a565b005b6101b160048036038101906101ac9190610de9565b610746565b6040516101be9190610e67565b60405180910390f35b6101e160048036038101906101dc9190610d07565b61079b565b005b6101fd60048036038101906101f89190610d07565b6108f0565b005b6000600354905090565b6000600754600654101561026357600654600754610225610a39565b6040517f9ef88eb200000000000000000000000000000000000000000000000000000000815260040161025a93929190610e91565b60405180910390fd5b6000806000600354815260200190815260200160002090508281600001908161028c91906110df565b50600081600101819055506000816002018190555060005b6004548110156103bb57600160006002600084815260200190815260200160002060009054906101000a900473ffffffffffffffffffffffffffffffffffffffff1673ffffffffffffffffffffffffffffffffffffffff1673ffffffffffffffffffffffffffffffffffffffff16815260200190815260200160002060009054906101000a900460ff16156103ae5760018260050160006002600085815260200190815260200160002060009054906101000a900473ffffffffffffffffffffffffffffffffffffffff1673ffffffffffffffffffffffffffffffffffffffff1673ffffffffffffffffffffffffffffffffffffffff168152602001908152602001600020819055505b80806001019150506102a4565b507f85808ba6b61b3e11f7dba026341d5ff5603fab7df37b176ebfa0f296264cd12e600354846040516103ef929190611225565b60405180910390a16103ff610a41565b600160035461040e9190611284565b915050919050565b6000600654905090565b6000600454905090565b6000600160008373ffffffffffffffffffffffffffffffffffffffff1673ffffffffffffffffffffffffffffffffffffffff16815260200190815260200160002060009054906101000a900460ff169050919050565b6000600554905090565b60016000610496610a39565b73ffffffffffffffffffffffffffffffffffffffff1673ffffffffffffffffffffffffffffffffffffffff16815260200190815260200160002060009054906101000a900460ff16610526576104ea610a39565b6040517ff432bce900000000000000000000000000000000000000000000000000000000815260040161051d91906112b8565b60405180910390fd5b60008060008581526020019081526020016000209050600181600501600061054c610a39565b73ffffffffffffffffffffffffffffffffffffffff1673ffffffffffffffffffffffffffffffffffffffff168152602001908152602001600020540361074057600281600501600061059c610a39565b73ffffffffffffffffffffffffffffffffffffffff1673ffffffffffffffffffffffffffffffffffffffff168152602001908152602001600020819055506000805b8061066e5760008360030160008481526020019081526020016000205414801561061d5750600083600401600084815260200190815260200160002054145b1561065b5760019050848360030160008481526020019081526020016000208190555083836004016000848152602001908152602001600020819055505b8180610666906112d3565b9250506105de565b6000805b60065481101561073b5786856003016000838152602001908152602001600020541480156106b457508585600401600083815260200190815260200160002054145b1561072e5781806106c4906112d3565b925050600554821061072d578685600101819055508585600201819055507f16537abc3ef9eae48878292cc428593b6d0c63ab7b8ae57d6f689429af0554616003548660000187600101548860020154604051610724949392919061139f565b60405180910390a15b5b8080600101915050610672565b505050505b50505050565b61074e610ab1565b600080600084815260200190815260200160002090506000816001015490506000826002015490506040518060600160405280868152602001838152602001828152509350505050919050565b600160008273ffffffffffffffffffffffffffffffffffffffff1673ffffffffffffffffffffffffffffffffffffffff16815260200190815260200160002060009054906101000a900460ff161561082a57806040517f8bc3812000000000000000000000000000000000000000000000000000000000815260040161082191906112b8565b60405180910390fd5b60018060008373ffffffffffffffffffffffffffffffffffffffff1673ffffffffffffffffffffffffffffffffffffffff16815260200190815260200160002060006101000a81548160ff0219169083151502179055508060026000600454815260200190815260200160002060006101000a81548173ffffffffffffffffffffffffffffffffffffffff021916908373ffffffffffffffffffffffffffffffffffffffff1602179055506108dd610a55565b6108e5610a69565b6108ed610a7d565b50565b6007546006541161094057600654600754826040517f9ef88eb200000000000000000000000000000000000000000000000000000000815260040161093793929190610e91565b60405180910390fd5b600160008273ffffffffffffffffffffffffffffffffffffffff1673ffffffffffffffffffffffffffffffffffffffff16815260200190815260200160002060009054906101000a900460ff166109ce57806040517f64c326910000000000000000000000000000000000000000000000000000000081526004016109c591906112b8565b60405180910390fd5b6000600160008373ffffffffffffffffffffffffffffffffffffffff1673ffffffffffffffffffffffffffffffffffffffff16815260200190815260200160002060006101000a81548160ff021916908315150217905550610a2e610a9c565b610a36610a7d565b50565b600033905090565b600360008154809291906001019190505550565b600460008154809291906001019190505550565b600660008154809291906001019190505550565b6001600260065481610a9257610a916113eb565b5b0401600581905550565b60066000815480929190600190039190505550565b60405180606001604052806000815260200160008152602001600081525090565b6000819050919050565b610ae581610ad2565b82525050565b6000602082019050610b006000830184610adc565b92915050565b6000604051905090565b600080fd5b600080fd5b600080fd5b600080fd5b6000601f19601f8301169050919050565b7f4e487b7100000000000000000000000000000000000000000000000000000000600052604160045260246000fd5b610b6d82610b24565b810181811067ffffffffffffffff82111715610b8c57610b8b610b35565b5b80604052505050565b6000610b9f610b06565b9050610bab8282610b64565b919050565b600067ffffffffffffffff821115610bcb57610bca610b35565b5b610bd482610b24565b9050602081019050919050565b82818337600083830152505050565b6000610c03610bfe84610bb0565b610b95565b905082815260208101848484011115610c1f57610c1e610b1f565b5b610c2a848285610be1565b509392505050565b600082601f830112610c4757610c46610b1a565b5b8135610c57848260208601610bf0565b91505092915050565b600060208284031215610c7657610c75610b10565b5b600082013567ffffffffffffffff811115610c9457610c93610b15565b5b610ca084828501610c32565b91505092915050565b600073ffffffffffffffffffffffffffffffffffffffff82169050919050565b6000610cd482610ca9565b9050919050565b610ce481610cc9565b8114610cef57600080fd5b50565b600081359050610d0181610cdb565b92915050565b600060208284031215610d1d57610d1c610b10565b5b6000610d2b84828501610cf2565b91505092915050565b60008115159050919050565b610d4981610d34565b82525050565b6000602082019050610d646000830184610d40565b92915050565b610d7381610ad2565b8114610d7e57600080fd5b50565b600081359050610d9081610d6a565b92915050565b600080600060608486031215610daf57610dae610b10565b5b6000610dbd86828701610d81565b9350506020610dce86828701610d81565b9250506040610ddf86828701610d81565b9150509250925092565b600060208284031215610dff57610dfe610b10565b5b6000610e0d84828501610d81565b91505092915050565b610e1f81610ad2565b82525050565b606082016000820151610e3b6000850182610e16565b506020820151610e4e6020850182610e16565b506040820151610e616040850182610e16565b50505050565b6000606082019050610e7c6000830184610e25565b92915050565b610e8b81610cc9565b82525050565b6000606082019050610ea66000830186610adc565b610eb36020830185610adc565b610ec06040830184610e82565b949350505050565b600081519050919050565b7f4e487b7100000000000000000000000000000000000000000000000000000000600052602260045260246000fd5b60006002820490506001821680610f1a57607f821691505b602082108103610f2d57610f2c610ed3565b5b50919050565b60008190508160005260206000209050919050565b60006020601f8301049050919050565b600082821b905092915050565b600060088302610f957fffffffffffffffffffffffffffffffffffffffffffffffffffffffffffffffff82610f58565b610f9f8683610f58565b95508019841693508086168417925050509392505050565b6000819050919050565b6000610fdc610fd7610fd284610ad2565b610fb7565b610ad2565b9050919050565b6000819050919050565b610ff683610fc1565b61100a61100282610fe3565b848454610f65565b825550505050565b600090565b61101f611012565b61102a818484610fed565b505050565b5b8181101561104e57611043600082611017565b600181019050611030565b5050565b601f8211156110935761106481610f33565b61106d84610f48565b8101602085101561107c578190505b61109061108885610f48565b83018261102f565b50505b505050565b600082821c905092915050565b60006110b660001984600802611098565b1980831691505092915050565b60006110cf83836110a5565b9150826002028217905092915050565b6110e882610ec8565b67ffffffffffffffff81111561110157611100610b35565b5b61110b8254610f02565b611116828285611052565b600060209050601f8311600181146111495760008415611137578287015190505b61114185826110c3565b8655506111a9565b601f19841661115786610f33565b60005b8281101561117f5784890151825560018201915060208501945060208101905061115a565b8683101561119c5784890151611198601f8916826110a5565b8355505b6001600288020188555050505b505050505050565b600082825260208201905092915050565b60005b838110156111e05780820151818401526020810190506111c5565b60008484015250505050565b60006111f782610ec8565b61120181856111b1565b93506112118185602086016111c2565b61121a81610b24565b840191505092915050565b600060408201905061123a6000830185610adc565b818103602083015261124c81846111ec565b90509392505050565b7f4e487b7100000000000000000000000000000000000000000000000000000000600052601160045260246000fd5b600061128f82610ad2565b915061129a83610ad2565b92508282039050818111156112b2576112b1611255565b5b92915050565b60006020820190506112cd6000830184610e82565b92915050565b60006112de82610ad2565b91507fffffffffffffffffffffffffffffffffffffffffffffffffffffffffffffffff82036113105761130f611255565b5b600182019050919050565b6000815461132881610f02565b61133281866111b1565b9450600182166000811461134d576001811461136357611396565b60ff198316865281151560200286019350611396565b61136c85610f33565b60005b8381101561138e5781548189015260018201915060208101905061136f565b808801955050505b50505092915050565b60006080820190506113b46000830187610adc565b81810360208301526113c6818661131b565b90506113d56040830185610adc565b6113e26060830184610adc565b95945050505050565b7f4e487b7100000000000000000000000000000000000000000000000000000000600052601260045260246000fdfea2646970667358221220ea0ecc3160226da7dd4466406a6131f04874e870475765861d7e802084d4fc8f64736f6c63430008180033",
  "linkReferences": {},
  "deployedLinkReferences": {}
}