{
  "_format": "hh-sol-artifact-1",
  "contractName": "JpynOracle",
  "sourceName": "contracts/JpynOracle.sol",
  "abi": [
    {
      "inputs": [],
      "stateMutability": "nonpayable",
      "type": "constructor"
    },
    {
      "inputs": [
        {
          "internalType": "address",
          "name": "sender",
          "type": "address"
        }
      ],
      "name": "ExistingAdmin",
      "type": "error"
    },
    {
      "inputs": [
        {
          "internalType": "address",
          "name": "sender",
          "type": "address"
        }
      ],
      "name": "ExistingOracle",
      "type": "error"
    },
    {
      "inputs": [
        {
          "internalType": "uint256",
          "name": "totalAdminCount",
          "type": "uint256"
        },
        {
          "internalType": "uint256",
          "name": "minAdminCount",
          "type": "uint256"
        },
        {
          "internalType": "address",
          "name": "sender",
          "type": "address"
        }
      ],
      "name": "NotEnoughAdmins",
      "type": "error"
    },
    {
      "inputs": [
        {
          "internalType": "uint256",
          "name": "totalOracleCount",
          "type": "uint256"
        },
        {
          "internalType": "uint256",
          "name": "minOracleCount",
          "type": "uint256"
        },
        {
          "internalType": "address",
          "name": "sender",
          "type": "address"
        }
      ],
      "name": "NotEnoughOracles",
      "type": "error"
    },
    {
      "inputs": [
        {
          "internalType": "address",
          "name": "sender",
          "type": "address"
        }
      ],
      "name": "NotExistingAdmin",
      "type": "error"
    },
    {
      "inputs": [
        {
          "internalType": "address",
          "name": "sender",
          "type": "address"
        }
      ],
      "name": "NotExistingOrracle",
      "type": "error"
    },
    {
      "inputs": [
        {
          "internalType": "address",
          "name": "sender",
          "type": "address"
        }
      ],
      "name": "OnlyAdmin",
      "type": "error"
    },
    {
      "inputs": [
        {
          "internalType": "address",
          "name": "sender",
          "type": "address"
        }
      ],
      "name": "OnlyOracle",
      "type": "error"
    },
    {
      "anonymous": false,
      "inputs": [
        {
          "indexed": false,
          "internalType": "uint256",
          "name": "id",
          "type": "uint256"
        },
        {
          "indexed": false,
          "internalType": "string",
          "name": "hashedAccount",
          "type": "string"
        }
      ],
      "name": "NewRequest",
      "type": "event"
    },
    {
      "anonymous": false,
      "inputs": [
        {
          "indexed": false,
          "internalType": "uint256",
          "name": "id",
          "type": "uint256"
        },
        {
          "indexed": false,
          "internalType": "string",
          "name": "hashedAccount",
          "type": "string"
        },
        {
          "indexed": false,
          "internalType": "uint256",
          "name": "agreedAccountStatus",
          "type": "uint256"
        },
        {
          "indexed": false,
          "internalType": "uint256",
          "name": "agreedAccountBalance",
          "type": "uint256"
        }
      ],
      "name": "UpdatedRequest",
      "type": "event"
    },
    {
      "inputs": [
        {
          "internalType": "address",
          "name": "sender",
          "type": "address"
        }
      ],
      "name": "addOracle",
      "outputs": [],
      "stateMutability": "nonpayable",
      "type": "function"
    },
    {
      "inputs": [],
      "name": "checkAndPenalizeExpiredRequests",
      "outputs": [],
      "stateMutability": "nonpayable",
      "type": "function"
    },
    {
      "inputs": [
        {
          "internalType": "string",
          "name": "_hashedAccount",
          "type": "string"
        }
      ],
      "name": "createRequest",
      "outputs": [
        {
          "internalType": "uint256",
          "name": "",
          "type": "uint256"
        }
      ],
      "stateMutability": "nonpayable",
      "type": "function"
    },
    {
      "inputs": [],
      "name": "getCurrentOracleId",
      "outputs": [
        {
          "internalType": "uint256",
          "name": "",
          "type": "uint256"
        }
      ],
      "stateMutability": "view",
      "type": "function"
    },
    {
      "inputs": [],
      "name": "getCurrentRequestId",
      "outputs": [
        {
          "internalType": "uint256",
          "name": "",
          "type": "uint256"
        }
      ],
      "stateMutability": "view",
      "type": "function"
    },
    {
      "inputs": [],
      "name": "getMinQuorum",
      "outputs": [
        {
          "internalType": "uint256",
          "name": "",
          "type": "uint256"
        }
      ],
      "stateMutability": "view",
      "type": "function"
    },
    {
      "inputs": [
        {
          "internalType": "uint256",
          "name": "_id",
          "type": "uint256"
        }
      ],
      "name": "getRequest",
      "outputs": [
        {
          "components": [
            {
              "internalType": "uint256",
              "name": "id",
              "type": "uint256"
            },
            {
              "internalType": "uint256",
              "name": "accountStatus",
              "type": "uint256"
            },
            {
              "internalType": "uint256",
              "name": "accountBalance",
              "type": "uint256"
            }
          ],
          "internalType": "struct JpynOracle.GetRequest",
          "name": "",
          "type": "tuple"
        }
      ],
      "stateMutability": "view",
      "type": "function"
    },
    {
      "inputs": [],
      "name": "getTotalOracleCount",
      "outputs": [
        {
          "internalType": "uint256",
          "name": "",
          "type": "uint256"
        }
      ],
      "stateMutability": "view",
      "type": "function"
    },
    {
      "inputs": [
        {
          "internalType": "address",
          "name": "_sender",
          "type": "address"
        }
      ],
      "name": "isOracle",
      "outputs": [
        {
          "internalType": "bool",
          "name": "",
          "type": "bool"
        }
      ],
      "stateMutability": "view",
      "type": "function"
    },
    {
      "inputs": [
        {
          "internalType": "address",
          "name": "sender",
          "type": "address"
        }
      ],
      "name": "removeOracle",
      "outputs": [],
      "stateMutability": "nonpayable",
      "type": "function"
    },
    {
      "inputs": [
        {
          "internalType": "uint256",
          "name": "_id",
          "type": "uint256"
        },
        {
          "internalType": "uint256",
          "name": "_valueAccountStatus",
          "type": "uint256"
        },
        {
          "internalType": "uint256",
          "name": "_valueAccountBalance",
          "type": "uint256"
        }
      ],
      "name": "updateRequest",
      "outputs": [],
      "stateMutability": "nonpayable",
      "type": "function"
    }
  ],
  "bytecode": "0x608060405234801561001057600080fd5b5060006005819055506000600681905550600060078190555060006008819055506003600981905550611e96806100486000396000f3fe608060405234801561001057600080fd5b50600436106100a95760003560e01c8063a97e5c9311610071578063a97e5c9314610142578063a9b3bfa914610172578063ab49c77414610190578063c58343ef146101ac578063df5dd1a5146101dc578063fdc85fc4146101f8576100a9565b806315cd1841146100ae5780631b146ecf146100cc57806360469011146100fc5780636478cf93146101065780636cd17d6e14610124575b600080fd5b6100b6610214565b6040516100c3919061146f565b60405180910390f35b6100e660048036038101906100e191906115e4565b61021e565b6040516100f3919061146f565b60405180910390f35b61010461047e565b005b61010e610873565b60405161011b919061146f565b60405180910390f35b61012c61087d565b604051610139919061146f565b60405180910390f35b61015c6004803603810190610157919061168b565b610887565b60405161016991906116d3565b60405180910390f35b61017a6108dd565b604051610187919061146f565b60405180910390f35b6101aa60048036038101906101a5919061171a565b6108e7565b005b6101c660048036038101906101c1919061176d565b610cd2565b6040516101d391906117eb565b60405180910390f35b6101f660048036038101906101f1919061168b565b610d27565b005b610212600480360381019061020d919061168b565b610e7c565b005b6000600554905090565b600060095460085410156102785760085460095461023a610fc5565b6040517f9ef88eb200000000000000000000000000000000000000000000000000000000815260040161026f93929190611815565b60405180910390fd5b600080600060055481526020019081526020016000209050828160000190816102a19190611a63565b506000816001018190555060008160020181905550428160060160006101000a81548163ffffffff021916908363ffffffff16021790555061012c426102e79190611b64565b8160060160046101000a81548163ffffffff021916908363ffffffff16021790555060005b60065481101561042357600160006002600084815260200190815260200160002060009054906101000a900473ffffffffffffffffffffffffffffffffffffffff1673ffffffffffffffffffffffffffffffffffffffff1673ffffffffffffffffffffffffffffffffffffffff16815260200190815260200160002060009054906101000a900460ff16156104165760018260050160006002600085815260200190815260200160002060009054906101000a900473ffffffffffffffffffffffffffffffffffffffff1673ffffffffffffffffffffffffffffffffffffffff1673ffffffffffffffffffffffffffffffffffffffff168152602001908152602001600020819055505b808060010191505061030c565b507f85808ba6b61b3e11f7dba026341d5ff5603fab7df37b176ebfa0f296264cd12e60055484604051610457929190611c0c565b60405180910390a1610467610fcd565b60016005546104769190611c3c565b915050919050565b60005b60055481101561087057600080600083815260200190815260200160002090508060060160049054906101000a900463ffffffff1663ffffffff164211156108625760005b60065481101561086057600160006002600084815260200190815260200160002060009054906101000a900473ffffffffffffffffffffffffffffffffffffffff1673ffffffffffffffffffffffffffffffffffffffff1673ffffffffffffffffffffffffffffffffffffffff16815260200190815260200160002060009054906101000a900460ff1680156106945750610693600360006002600085815260200190815260200160002060009054906101000a900473ffffffffffffffffffffffffffffffffffffffff1673ffffffffffffffffffffffffffffffffffffffff1673ffffffffffffffffffffffffffffffffffffffff16815260200190815260200160002060008581526020019081526020016000206040518060600160405290816000820180546105f890611886565b80601f016020809104026020016040519081016040528092919081815260200182805461062490611886565b80156106715780601f1061064657610100808354040283529160200191610671565b820191906000526020600020905b81548152906001019060200180831161065457829003601f168201915b5050505050815260200160018201548152602001600282015481525050610fe1565b5b15610853576001600460006002600085815260200190815260200160002060009054906101000a900473ffffffffffffffffffffffffffffffffffffffff1673ffffffffffffffffffffffffffffffffffffffff1673ffffffffffffffffffffffffffffffffffffffff168152602001908152602001600020600082825461071c9190611b64565b925050819055506003600460006002600087815260200190815260200160002060009054906101000a900473ffffffffffffffffffffffffffffffffffffffff1673ffffffffffffffffffffffffffffffffffffffff1673ffffffffffffffffffffffffffffffffffffffff1681526020019081526020016000205403610852576107d96002600085815260200190815260200160002060009054906101000a900473ffffffffffffffffffffffffffffffffffffffff16610e7c565b6000600460006002600087815260200190815260200160002060009054906101000a900473ffffffffffffffffffffffffffffffffffffffff1673ffffffffffffffffffffffffffffffffffffffff1673ffffffffffffffffffffffffffffffffffffffff168152602001908152602001600020819055505b5b80806001019150506104c6565b505b508080600101915050610481565b50565b6000600854905090565b6000600654905090565b6000600160008373ffffffffffffffffffffffffffffffffffffffff1673ffffffffffffffffffffffffffffffffffffffff16815260200190815260200160002060009054906101000a900460ff169050919050565b6000600754905090565b600160006108f3610fc5565b73ffffffffffffffffffffffffffffffffffffffff1673ffffffffffffffffffffffffffffffffffffffff16815260200190815260200160002060009054906101000a900460ff1661098357610947610fc5565b6040517ff432bce900000000000000000000000000000000000000000000000000000000815260040161097a9190611c70565b60405180910390fd5b6000806000858152602001908152602001600020905060405180606001604052808260000180546109b390611886565b80601f01602080910402602001604051908101604052809291908181526020018280546109df90611886565b8015610a2c5780601f10610a0157610100808354040283529160200191610a2c565b820191906000526020600020905b815481529060010190602001808311610a0f57829003601f168201915b5050505050815260200184815260200183815250600360003373ffffffffffffffffffffffffffffffffffffffff1673ffffffffffffffffffffffffffffffffffffffff16815260200190815260200160002060008681526020019081526020016000206000820151816000019081610aa59190611a63565b5060208201518160010155604082015181600201559050506001816005016000610acd610fc5565b73ffffffffffffffffffffffffffffffffffffffff1673ffffffffffffffffffffffffffffffffffffffff1681526020019081526020016000205403610ccc576002816005016000610b1d610fc5565b73ffffffffffffffffffffffffffffffffffffffff1673ffffffffffffffffffffffffffffffffffffffff168152602001908152602001600020819055506000805b80610bef57600083600301600084815260200190815260200160002054148015610b9e5750600083600401600084815260200190815260200160002054145b15610bdc5760019050848360030160008481526020019081526020016000208190555083836004016000848152602001908152602001600020819055505b8180610be790611c8b565b925050610b5f565b6000805b600854811015610cc7578685600301600083815260200190815260200160002054148015610c3557508585600401600083815260200190815260200160002054145b15610cba578180610c4590611c8b565b9250506007548210610cb9578685600101819055508585600201819055507f16537abc3ef9eae48878292cc428593b6d0c63ab7b8ae57d6f689429af0554616005548660000187600101548860020154604051610ca59493929190611d57565b60405180910390a1610cb888888861105b565b5b5b8080600101915050610bf3565b505050505b50505050565b610cda611435565b600080600084815260200190815260200160002090506000816001015490506000826002015490506040518060600160405280868152602001838152602001828152509350505050919050565b600160008273ffffffffffffffffffffffffffffffffffffffff1673ffffffffffffffffffffffffffffffffffffffff16815260200190815260200160002060009054906101000a900460ff1615610db657806040517f8bc38120000000000000000000000000000000000000000000000000000000008152600401610dad9190611c70565b60405180910390fd5b60018060008373ffffffffffffffffffffffffffffffffffffffff1673ffffffffffffffffffffffffffffffffffffffff16815260200190815260200160002060006101000a81548160ff0219169083151502179055508060026000600654815260200190815260200160002060006101000a81548173ffffffffffffffffffffffffffffffffffffffff021916908373ffffffffffffffffffffffffffffffffffffffff160217905550610e696113d9565b610e716113ed565b610e79611401565b50565b60095460085411610ecc57600854600954826040517f9ef88eb2000000000000000000000000000000000000000000000000000000008152600401610ec393929190611815565b60405180910390fd5b600160008273ffffffffffffffffffffffffffffffffffffffff1673ffffffffffffffffffffffffffffffffffffffff16815260200190815260200160002060009054906101000a900460ff16610f5a57806040517f64c32691000000000000000000000000000000000000000000000000000000008152600401610f519190611c70565b60405180910390fd5b6000600160008373ffffffffffffffffffffffffffffffffffffffff1673ffffffffffffffffffffffffffffffffffffffff16815260200190815260200160002060006101000a81548160ff021916908315150217905550610fba611420565b610fc2611401565b50565b600033905090565b600560008154809291906001019190505550565b6000604051602001610ff290611dd4565b60405160208183030381529060405280519060200120826000015160405160200161101d9190611e1a565b60405160208183030381529060405280519060200120148015611044575060008260200151145b8015611054575060008260400151145b9050919050565b60005b6008548110156113d357600160006002600084815260200190815260200160002060009054906101000a900473ffffffffffffffffffffffffffffffffffffffff1673ffffffffffffffffffffffffffffffffffffffff1673ffffffffffffffffffffffffffffffffffffffff16815260200190815260200160002060009054906101000a900460ff16156113c65782600360006002600085815260200190815260200160002060009054906101000a900473ffffffffffffffffffffffffffffffffffffffff1673ffffffffffffffffffffffffffffffffffffffff1673ffffffffffffffffffffffffffffffffffffffff168152602001908152602001600020600086815260200190815260200160002060010154141580611208575081600360006002600085815260200190815260200160002060009054906101000a900473ffffffffffffffffffffffffffffffffffffffff1673ffffffffffffffffffffffffffffffffffffffff1673ffffffffffffffffffffffffffffffffffffffff16815260200190815260200160002060008681526020019081526020016000206002015414155b156113c557600460006002600084815260200190815260200160002060009054906101000a900473ffffffffffffffffffffffffffffffffffffffff1673ffffffffffffffffffffffffffffffffffffffff1673ffffffffffffffffffffffffffffffffffffffff168152602001908152602001600020600081548092919061129090611c8b565b91905055506003600460006002600085815260200190815260200160002060009054906101000a900473ffffffffffffffffffffffffffffffffffffffff1673ffffffffffffffffffffffffffffffffffffffff1673ffffffffffffffffffffffffffffffffffffffff16815260200190815260200160002054036113c45761134b6002600083815260200190815260200160002060009054906101000a900473ffffffffffffffffffffffffffffffffffffffff16610e7c565b6000600460006002600085815260200190815260200160002060009054906101000a900473ffffffffffffffffffffffffffffffffffffffff1673ffffffffffffffffffffffffffffffffffffffff1673ffffffffffffffffffffffffffffffffffffffff168152602001908152602001600020819055505b5b5b808060010191505061105e565b50505050565b600660008154809291906001019190505550565b600860008154809291906001019190505550565b600160026008548161141657611415611e31565b5b0401600781905550565b60086000815480929190600190039190505550565b60405180606001604052806000815260200160008152602001600081525090565b6000819050919050565b61146981611456565b82525050565b60006020820190506114846000830184611460565b92915050565b6000604051905090565b600080fd5b600080fd5b600080fd5b600080fd5b6000601f19601f8301169050919050565b7f4e487b7100000000000000000000000000000000000000000000000000000000600052604160045260246000fd5b6114f1826114a8565b810181811067ffffffffffffffff821117156115105761150f6114b9565b5b80604052505050565b600061152361148a565b905061152f82826114e8565b919050565b600067ffffffffffffffff82111561154f5761154e6114b9565b5b611558826114a8565b9050602081019050919050565b82818337600083830152505050565b600061158761158284611534565b611519565b9050828152602081018484840111156115a3576115a26114a3565b5b6115ae848285611565565b509392505050565b600082601f8301126115cb576115ca61149e565b5b81356115db848260208601611574565b91505092915050565b6000602082840312156115fa576115f9611494565b5b600082013567ffffffffffffffff81111561161857611617611499565b5b611624848285016115b6565b91505092915050565b600073ffffffffffffffffffffffffffffffffffffffff82169050919050565b60006116588261162d565b9050919050565b6116688161164d565b811461167357600080fd5b50565b6000813590506116858161165f565b92915050565b6000602082840312156116a1576116a0611494565b5b60006116af84828501611676565b91505092915050565b60008115159050919050565b6116cd816116b8565b82525050565b60006020820190506116e860008301846116c4565b92915050565b6116f781611456565b811461170257600080fd5b50565b600081359050611714816116ee565b92915050565b60008060006060848603121561173357611732611494565b5b600061174186828701611705565b935050602061175286828701611705565b925050604061176386828701611705565b9150509250925092565b60006020828403121561178357611782611494565b5b600061179184828501611705565b91505092915050565b6117a381611456565b82525050565b6060820160008201516117bf600085018261179a565b5060208201516117d2602085018261179a565b5060408201516117e5604085018261179a565b50505050565b600060608201905061180060008301846117a9565b92915050565b61180f8161164d565b82525050565b600060608201905061182a6000830186611460565b6118376020830185611460565b6118446040830184611806565b949350505050565b600081519050919050565b7f4e487b7100000000000000000000000000000000000000000000000000000000600052602260045260246000fd5b6000600282049050600182168061189e57607f821691505b6020821081036118b1576118b0611857565b5b50919050565b60008190508160005260206000209050919050565b60006020601f8301049050919050565b600082821b905092915050565b6000600883026119197fffffffffffffffffffffffffffffffffffffffffffffffffffffffffffffffff826118dc565b61192386836118dc565b95508019841693508086168417925050509392505050565b6000819050919050565b600061196061195b61195684611456565b61193b565b611456565b9050919050565b6000819050919050565b61197a83611945565b61198e61198682611967565b8484546118e9565b825550505050565b600090565b6119a3611996565b6119ae818484611971565b505050565b5b818110156119d2576119c760008261199b565b6001810190506119b4565b5050565b601f821115611a17576119e8816118b7565b6119f1846118cc565b81016020851015611a00578190505b611a14611a0c856118cc565b8301826119b3565b50505b505050565b600082821c905092915050565b6000611a3a60001984600802611a1c565b1980831691505092915050565b6000611a538383611a29565b9150826002028217905092915050565b611a6c8261184c565b67ffffffffffffffff811115611a8557611a846114b9565b5b611a8f8254611886565b611a9a8282856119d6565b600060209050601f831160018114611acd5760008415611abb578287015190505b611ac58582611a47565b865550611b2d565b601f198416611adb866118b7565b60005b82811015611b0357848901518255600182019150602085019450602081019050611ade565b86831015611b205784890151611b1c601f891682611a29565b8355505b6001600288020188555050505b505050505050565b7f4e487b7100000000000000000000000000000000000000000000000000000000600052601160045260246000fd5b6000611b6f82611456565b9150611b7a83611456565b9250828201905080821115611b9257611b91611b35565b5b92915050565b600082825260208201905092915050565b60005b83811015611bc7578082015181840152602081019050611bac565b60008484015250505050565b6000611bde8261184c565b611be88185611b98565b9350611bf8818560208601611ba9565b611c01816114a8565b840191505092915050565b6000604082019050611c216000830185611460565b8181036020830152611c338184611bd3565b90509392505050565b6000611c4782611456565b9150611c5283611456565b9250828203905081811115611c6a57611c69611b35565b5b92915050565b6000602082019050611c856000830184611806565b92915050565b6000611c9682611456565b91507fffffffffffffffffffffffffffffffffffffffffffffffffffffffffffffffff8203611cc857611cc7611b35565b5b600182019050919050565b60008154611ce081611886565b611cea8186611b98565b94506001821660008114611d055760018114611d1b57611d4e565b60ff198316865281151560200286019350611d4e565b611d24856118b7565b60005b83811015611d4657815481890152600182019150602081019050611d27565b808801955050505b50505092915050565b6000608082019050611d6c6000830187611460565b8181036020830152611d7e8186611cd3565b9050611d8d6040830185611460565b611d9a6060830184611460565b95945050505050565b600081905092915050565b50565b6000611dbe600083611da3565b9150611dc982611dae565b600082019050919050565b6000611ddf82611db1565b9150819050919050565b6000611df48261184c565b611dfe8185611da3565b9350611e0e818560208601611ba9565b80840191505092915050565b6000611e268284611de9565b915081905092915050565b7f4e487b7100000000000000000000000000000000000000000000000000000000600052601260045260246000fdfea26469706673582212207cef78024a9c85d69b7d27df9ceba5f9e1782bec57aca33d2d8fc9a03fbda55064736f6c63430008180033",
  "linkReferences": {},
  "deployedLinkReferences": {}
}