{
  "_format": "hh-sol-artifact-1",
  "contractName": "JpynOracle",
  "sourceName": "contracts/JpynOracle.sol",
  "abi": [
    {
      "inputs": [],
      "stateMutability": "nonpayable",
      "type": "constructor"
    },
    {
      "inputs": [
        {
          "internalType": "address",
          "name": "sender",
          "type": "address"
        }
      ],
      "name": "ExistingAdmin",
      "type": "error"
    },
    {
      "inputs": [
        {
          "internalType": "address",
          "name": "sender",
          "type": "address"
        }
      ],
      "name": "ExistingOracle",
      "type": "error"
    },
    {
      "inputs": [
        {
          "internalType": "uint256",
          "name": "totalAdminCount",
          "type": "uint256"
        },
        {
          "internalType": "uint256",
          "name": "minAdminCount",
          "type": "uint256"
        },
        {
          "internalType": "address",
          "name": "sender",
          "type": "address"
        }
      ],
      "name": "NotEnoughAdmins",
      "type": "error"
    },
    {
      "inputs": [
        {
          "internalType": "uint256",
          "name": "totalOracleCount",
          "type": "uint256"
        },
        {
          "internalType": "uint256",
          "name": "minOracleCount",
          "type": "uint256"
        },
        {
          "internalType": "address",
          "name": "sender",
          "type": "address"
        }
      ],
      "name": "NotEnoughOracles",
      "type": "error"
    },
    {
      "inputs": [
        {
          "internalType": "address",
          "name": "sender",
          "type": "address"
        }
      ],
      "name": "NotExistingAdmin",
      "type": "error"
    },
    {
      "inputs": [
        {
          "internalType": "address",
          "name": "sender",
          "type": "address"
        }
      ],
      "name": "NotExistingOrracle",
      "type": "error"
    },
    {
      "inputs": [
        {
          "internalType": "address",
          "name": "sender",
          "type": "address"
        }
      ],
      "name": "OnlyAdmin",
      "type": "error"
    },
    {
      "inputs": [
        {
          "internalType": "address",
          "name": "sender",
          "type": "address"
        }
      ],
      "name": "OnlyOracle",
      "type": "error"
    },
    {
      "anonymous": false,
      "inputs": [
        {
          "indexed": false,
          "internalType": "uint256",
          "name": "id",
          "type": "uint256"
        },
        {
          "indexed": false,
          "internalType": "string",
          "name": "hashedAccount",
          "type": "string"
        }
      ],
      "name": "NewRequest",
      "type": "event"
    },
    {
      "anonymous": false,
      "inputs": [
        {
          "indexed": false,
          "internalType": "uint256",
          "name": "id",
          "type": "uint256"
        },
        {
          "indexed": false,
          "internalType": "string",
          "name": "hashedAccount",
          "type": "string"
        },
        {
          "indexed": false,
          "internalType": "uint256",
          "name": "agreedAccountStatus",
          "type": "uint256"
        },
        {
          "indexed": false,
          "internalType": "uint256",
          "name": "agreedAccountBalance",
          "type": "uint256"
        }
      ],
      "name": "UpdatedRequest",
      "type": "event"
    },
    {
      "inputs": [
        {
          "internalType": "address",
          "name": "sender",
          "type": "address"
        }
      ],
      "name": "addOracle",
      "outputs": [],
      "stateMutability": "nonpayable",
      "type": "function"
    },
    {
      "inputs": [],
      "name": "checkAndPenalizeExpiredRequests",
      "outputs": [],
      "stateMutability": "nonpayable",
      "type": "function"
    },
    {
      "inputs": [
        {
          "internalType": "string",
          "name": "_hashedAccount",
          "type": "string"
        }
      ],
      "name": "createRequest",
      "outputs": [
        {
          "internalType": "uint256",
          "name": "",
          "type": "uint256"
        }
      ],
      "stateMutability": "nonpayable",
      "type": "function"
    },
    {
      "inputs": [],
      "name": "getCurrentOracleId",
      "outputs": [
        {
          "internalType": "uint256",
          "name": "",
          "type": "uint256"
        }
      ],
      "stateMutability": "view",
      "type": "function"
    },
    {
      "inputs": [],
      "name": "getCurrentRequestId",
      "outputs": [
        {
          "internalType": "uint256",
          "name": "",
          "type": "uint256"
        }
      ],
      "stateMutability": "view",
      "type": "function"
    },
    {
      "inputs": [],
      "name": "getMinQuorum",
      "outputs": [
        {
          "internalType": "uint256",
          "name": "",
          "type": "uint256"
        }
      ],
      "stateMutability": "view",
      "type": "function"
    },
    {
      "inputs": [
        {
          "internalType": "uint256",
          "name": "_id",
          "type": "uint256"
        }
      ],
      "name": "getRequest",
      "outputs": [
        {
          "components": [
            {
              "internalType": "uint256",
              "name": "id",
              "type": "uint256"
            },
            {
              "internalType": "uint256",
              "name": "accountStatus",
              "type": "uint256"
            },
            {
              "internalType": "uint256",
              "name": "accountBalance",
              "type": "uint256"
            }
          ],
          "internalType": "struct JpynOracle.GetRequest",
          "name": "",
          "type": "tuple"
        }
      ],
      "stateMutability": "view",
      "type": "function"
    },
    {
      "inputs": [],
      "name": "getTotalOracleCount",
      "outputs": [
        {
          "internalType": "uint256",
          "name": "",
          "type": "uint256"
        }
      ],
      "stateMutability": "view",
      "type": "function"
    },
    {
      "inputs": [
        {
          "internalType": "address",
          "name": "_sender",
          "type": "address"
        }
      ],
      "name": "isOracle",
      "outputs": [
        {
          "internalType": "bool",
          "name": "",
          "type": "bool"
        }
      ],
      "stateMutability": "view",
      "type": "function"
    },
    {
      "inputs": [
        {
          "internalType": "address",
          "name": "sender",
          "type": "address"
        }
      ],
      "name": "removeOracle",
      "outputs": [],
      "stateMutability": "nonpayable",
      "type": "function"
    },
    {
      "inputs": [
        {
          "internalType": "uint256",
          "name": "_id",
          "type": "uint256"
        },
        {
          "internalType": "uint256",
          "name": "_valueAccountStatus",
          "type": "uint256"
        },
        {
          "internalType": "uint256",
          "name": "_valueAccountBalance",
          "type": "uint256"
        }
      ],
      "name": "updateRequest",
      "outputs": [],
      "stateMutability": "nonpayable",
      "type": "function"
    }
  ],
  "bytecode": "0x608060405234801561001057600080fd5b5060006005819055506000600681905550600060078190555060006008819055506003600981905550611e97806100486000396000f3fe608060405234801561001057600080fd5b50600436106100a95760003560e01c8063a97e5c9311610071578063a97e5c9314610142578063a9b3bfa914610172578063ab49c77414610190578063c58343ef146101ac578063df5dd1a5146101dc578063fdc85fc4146101f8576100a9565b806315cd1841146100ae5780631b146ecf146100cc57806360469011146100fc5780636478cf93146101065780636cd17d6e14610124575b600080fd5b6100b6610214565b6040516100c39190611470565b60405180910390f35b6100e660048036038101906100e191906115e5565b61021e565b6040516100f39190611470565b60405180910390f35b61010461047f565b005b61010e610874565b60405161011b9190611470565b60405180910390f35b61012c61087e565b6040516101399190611470565b60405180910390f35b61015c6004803603810190610157919061168c565b610888565b60405161016991906116d4565b60405180910390f35b61017a6108de565b6040516101879190611470565b60405180910390f35b6101aa60048036038101906101a5919061171b565b6108e8565b005b6101c660048036038101906101c1919061176e565b610cd3565b6040516101d391906117ec565b60405180910390f35b6101f660048036038101906101f1919061168c565b610d28565b005b610212600480360381019061020d919061168c565b610e7d565b005b6000600554905090565b600060095460085410156102785760085460095461023a610fc6565b6040517f9ef88eb200000000000000000000000000000000000000000000000000000000815260040161026f93929190611816565b60405180910390fd5b600080600060055481526020019081526020016000209050828160000190816102a19190611a64565b506000816001018190555060008160020181905550428160060160006101000a81548163ffffffff021916908363ffffffff16021790555062015180426102e89190611b65565b8160060160046101000a81548163ffffffff021916908363ffffffff16021790555060005b60065481101561042457600160006002600084815260200190815260200160002060009054906101000a900473ffffffffffffffffffffffffffffffffffffffff1673ffffffffffffffffffffffffffffffffffffffff1673ffffffffffffffffffffffffffffffffffffffff16815260200190815260200160002060009054906101000a900460ff16156104175760018260050160006002600085815260200190815260200160002060009054906101000a900473ffffffffffffffffffffffffffffffffffffffff1673ffffffffffffffffffffffffffffffffffffffff1673ffffffffffffffffffffffffffffffffffffffff168152602001908152602001600020819055505b808060010191505061030d565b507f85808ba6b61b3e11f7dba026341d5ff5603fab7df37b176ebfa0f296264cd12e60055484604051610458929190611c0d565b60405180910390a1610468610fce565b60016005546104779190611c3d565b915050919050565b60005b60055481101561087157600080600083815260200190815260200160002090508060060160049054906101000a900463ffffffff1663ffffffff164211156108635760005b60065481101561086157600160006002600084815260200190815260200160002060009054906101000a900473ffffffffffffffffffffffffffffffffffffffff1673ffffffffffffffffffffffffffffffffffffffff1673ffffffffffffffffffffffffffffffffffffffff16815260200190815260200160002060009054906101000a900460ff1680156106955750610694600360006002600085815260200190815260200160002060009054906101000a900473ffffffffffffffffffffffffffffffffffffffff1673ffffffffffffffffffffffffffffffffffffffff1673ffffffffffffffffffffffffffffffffffffffff16815260200190815260200160002060008581526020019081526020016000206040518060600160405290816000820180546105f990611887565b80601f016020809104026020016040519081016040528092919081815260200182805461062590611887565b80156106725780601f1061064757610100808354040283529160200191610672565b820191906000526020600020905b81548152906001019060200180831161065557829003601f168201915b5050505050815260200160018201548152602001600282015481525050610fe2565b5b15610854576001600460006002600085815260200190815260200160002060009054906101000a900473ffffffffffffffffffffffffffffffffffffffff1673ffffffffffffffffffffffffffffffffffffffff1673ffffffffffffffffffffffffffffffffffffffff168152602001908152602001600020600082825461071d9190611b65565b925050819055506003600460006002600087815260200190815260200160002060009054906101000a900473ffffffffffffffffffffffffffffffffffffffff1673ffffffffffffffffffffffffffffffffffffffff1673ffffffffffffffffffffffffffffffffffffffff1681526020019081526020016000205403610853576107da6002600085815260200190815260200160002060009054906101000a900473ffffffffffffffffffffffffffffffffffffffff16610e7d565b6000600460006002600087815260200190815260200160002060009054906101000a900473ffffffffffffffffffffffffffffffffffffffff1673ffffffffffffffffffffffffffffffffffffffff1673ffffffffffffffffffffffffffffffffffffffff168152602001908152602001600020819055505b5b80806001019150506104c7565b505b508080600101915050610482565b50565b6000600854905090565b6000600654905090565b6000600160008373ffffffffffffffffffffffffffffffffffffffff1673ffffffffffffffffffffffffffffffffffffffff16815260200190815260200160002060009054906101000a900460ff169050919050565b6000600754905090565b600160006108f4610fc6565b73ffffffffffffffffffffffffffffffffffffffff1673ffffffffffffffffffffffffffffffffffffffff16815260200190815260200160002060009054906101000a900460ff1661098457610948610fc6565b6040517ff432bce900000000000000000000000000000000000000000000000000000000815260040161097b9190611c71565b60405180910390fd5b6000806000858152602001908152602001600020905060405180606001604052808260000180546109b490611887565b80601f01602080910402602001604051908101604052809291908181526020018280546109e090611887565b8015610a2d5780601f10610a0257610100808354040283529160200191610a2d565b820191906000526020600020905b815481529060010190602001808311610a1057829003601f168201915b5050505050815260200184815260200183815250600360003373ffffffffffffffffffffffffffffffffffffffff1673ffffffffffffffffffffffffffffffffffffffff16815260200190815260200160002060008681526020019081526020016000206000820151816000019081610aa69190611a64565b5060208201518160010155604082015181600201559050506001816005016000610ace610fc6565b73ffffffffffffffffffffffffffffffffffffffff1673ffffffffffffffffffffffffffffffffffffffff1681526020019081526020016000205403610ccd576002816005016000610b1e610fc6565b73ffffffffffffffffffffffffffffffffffffffff1673ffffffffffffffffffffffffffffffffffffffff168152602001908152602001600020819055506000805b80610bf057600083600301600084815260200190815260200160002054148015610b9f5750600083600401600084815260200190815260200160002054145b15610bdd5760019050848360030160008481526020019081526020016000208190555083836004016000848152602001908152602001600020819055505b8180610be890611c8c565b925050610b60565b6000805b600854811015610cc8578685600301600083815260200190815260200160002054148015610c3657508585600401600083815260200190815260200160002054145b15610cbb578180610c4690611c8c565b9250506007548210610cba578685600101819055508585600201819055507f16537abc3ef9eae48878292cc428593b6d0c63ab7b8ae57d6f689429af0554616005548660000187600101548860020154604051610ca69493929190611d58565b60405180910390a1610cb988888861105c565b5b5b8080600101915050610bf4565b505050505b50505050565b610cdb611436565b600080600084815260200190815260200160002090506000816001015490506000826002015490506040518060600160405280868152602001838152602001828152509350505050919050565b600160008273ffffffffffffffffffffffffffffffffffffffff1673ffffffffffffffffffffffffffffffffffffffff16815260200190815260200160002060009054906101000a900460ff1615610db757806040517f8bc38120000000000000000000000000000000000000000000000000000000008152600401610dae9190611c71565b60405180910390fd5b60018060008373ffffffffffffffffffffffffffffffffffffffff1673ffffffffffffffffffffffffffffffffffffffff16815260200190815260200160002060006101000a81548160ff0219169083151502179055508060026000600654815260200190815260200160002060006101000a81548173ffffffffffffffffffffffffffffffffffffffff021916908373ffffffffffffffffffffffffffffffffffffffff160217905550610e6a6113da565b610e726113ee565b610e7a611402565b50565b60095460085411610ecd57600854600954826040517f9ef88eb2000000000000000000000000000000000000000000000000000000008152600401610ec493929190611816565b60405180910390fd5b600160008273ffffffffffffffffffffffffffffffffffffffff1673ffffffffffffffffffffffffffffffffffffffff16815260200190815260200160002060009054906101000a900460ff16610f5b57806040517f64c32691000000000000000000000000000000000000000000000000000000008152600401610f529190611c71565b60405180910390fd5b6000600160008373ffffffffffffffffffffffffffffffffffffffff1673ffffffffffffffffffffffffffffffffffffffff16815260200190815260200160002060006101000a81548160ff021916908315150217905550610fbb611421565b610fc3611402565b50565b600033905090565b600560008154809291906001019190505550565b6000604051602001610ff390611dd5565b60405160208183030381529060405280519060200120826000015160405160200161101e9190611e1b565b60405160208183030381529060405280519060200120148015611045575060008260200151145b8015611055575060008260400151145b9050919050565b60005b6008548110156113d457600160006002600084815260200190815260200160002060009054906101000a900473ffffffffffffffffffffffffffffffffffffffff1673ffffffffffffffffffffffffffffffffffffffff1673ffffffffffffffffffffffffffffffffffffffff16815260200190815260200160002060009054906101000a900460ff16156113c75782600360006002600085815260200190815260200160002060009054906101000a900473ffffffffffffffffffffffffffffffffffffffff1673ffffffffffffffffffffffffffffffffffffffff1673ffffffffffffffffffffffffffffffffffffffff168152602001908152602001600020600086815260200190815260200160002060010154141580611209575081600360006002600085815260200190815260200160002060009054906101000a900473ffffffffffffffffffffffffffffffffffffffff1673ffffffffffffffffffffffffffffffffffffffff1673ffffffffffffffffffffffffffffffffffffffff16815260200190815260200160002060008681526020019081526020016000206002015414155b156113c657600460006002600084815260200190815260200160002060009054906101000a900473ffffffffffffffffffffffffffffffffffffffff1673ffffffffffffffffffffffffffffffffffffffff1673ffffffffffffffffffffffffffffffffffffffff168152602001908152602001600020600081548092919061129190611c8c565b91905055506003600460006002600085815260200190815260200160002060009054906101000a900473ffffffffffffffffffffffffffffffffffffffff1673ffffffffffffffffffffffffffffffffffffffff1673ffffffffffffffffffffffffffffffffffffffff16815260200190815260200160002054036113c55761134c6002600083815260200190815260200160002060009054906101000a900473ffffffffffffffffffffffffffffffffffffffff16610e7d565b6000600460006002600085815260200190815260200160002060009054906101000a900473ffffffffffffffffffffffffffffffffffffffff1673ffffffffffffffffffffffffffffffffffffffff1673ffffffffffffffffffffffffffffffffffffffff168152602001908152602001600020819055505b5b5b808060010191505061105f565b50505050565b600660008154809291906001019190505550565b600860008154809291906001019190505550565b600160026008548161141757611416611e32565b5b0401600781905550565b60086000815480929190600190039190505550565b60405180606001604052806000815260200160008152602001600081525090565b6000819050919050565b61146a81611457565b82525050565b60006020820190506114856000830184611461565b92915050565b6000604051905090565b600080fd5b600080fd5b600080fd5b600080fd5b6000601f19601f8301169050919050565b7f4e487b7100000000000000000000000000000000000000000000000000000000600052604160045260246000fd5b6114f2826114a9565b810181811067ffffffffffffffff82111715611511576115106114ba565b5b80604052505050565b600061152461148b565b905061153082826114e9565b919050565b600067ffffffffffffffff8211156115505761154f6114ba565b5b611559826114a9565b9050602081019050919050565b82818337600083830152505050565b600061158861158384611535565b61151a565b9050828152602081018484840111156115a4576115a36114a4565b5b6115af848285611566565b509392505050565b600082601f8301126115cc576115cb61149f565b5b81356115dc848260208601611575565b91505092915050565b6000602082840312156115fb576115fa611495565b5b600082013567ffffffffffffffff8111156116195761161861149a565b5b611625848285016115b7565b91505092915050565b600073ffffffffffffffffffffffffffffffffffffffff82169050919050565b60006116598261162e565b9050919050565b6116698161164e565b811461167457600080fd5b50565b60008135905061168681611660565b92915050565b6000602082840312156116a2576116a1611495565b5b60006116b084828501611677565b91505092915050565b60008115159050919050565b6116ce816116b9565b82525050565b60006020820190506116e960008301846116c5565b92915050565b6116f881611457565b811461170357600080fd5b50565b600081359050611715816116ef565b92915050565b60008060006060848603121561173457611733611495565b5b600061174286828701611706565b935050602061175386828701611706565b925050604061176486828701611706565b9150509250925092565b60006020828403121561178457611783611495565b5b600061179284828501611706565b91505092915050565b6117a481611457565b82525050565b6060820160008201516117c0600085018261179b565b5060208201516117d3602085018261179b565b5060408201516117e6604085018261179b565b50505050565b600060608201905061180160008301846117aa565b92915050565b6118108161164e565b82525050565b600060608201905061182b6000830186611461565b6118386020830185611461565b6118456040830184611807565b949350505050565b600081519050919050565b7f4e487b7100000000000000000000000000000000000000000000000000000000600052602260045260246000fd5b6000600282049050600182168061189f57607f821691505b6020821081036118b2576118b1611858565b5b50919050565b60008190508160005260206000209050919050565b60006020601f8301049050919050565b600082821b905092915050565b60006008830261191a7fffffffffffffffffffffffffffffffffffffffffffffffffffffffffffffffff826118dd565b61192486836118dd565b95508019841693508086168417925050509392505050565b6000819050919050565b600061196161195c61195784611457565b61193c565b611457565b9050919050565b6000819050919050565b61197b83611946565b61198f61198782611968565b8484546118ea565b825550505050565b600090565b6119a4611997565b6119af818484611972565b505050565b5b818110156119d3576119c860008261199c565b6001810190506119b5565b5050565b601f821115611a18576119e9816118b8565b6119f2846118cd565b81016020851015611a01578190505b611a15611a0d856118cd565b8301826119b4565b50505b505050565b600082821c905092915050565b6000611a3b60001984600802611a1d565b1980831691505092915050565b6000611a548383611a2a565b9150826002028217905092915050565b611a6d8261184d565b67ffffffffffffffff811115611a8657611a856114ba565b5b611a908254611887565b611a9b8282856119d7565b600060209050601f831160018114611ace5760008415611abc578287015190505b611ac68582611a48565b865550611b2e565b601f198416611adc866118b8565b60005b82811015611b0457848901518255600182019150602085019450602081019050611adf565b86831015611b215784890151611b1d601f891682611a2a565b8355505b6001600288020188555050505b505050505050565b7f4e487b7100000000000000000000000000000000000000000000000000000000600052601160045260246000fd5b6000611b7082611457565b9150611b7b83611457565b9250828201905080821115611b9357611b92611b36565b5b92915050565b600082825260208201905092915050565b60005b83811015611bc8578082015181840152602081019050611bad565b60008484015250505050565b6000611bdf8261184d565b611be98185611b99565b9350611bf9818560208601611baa565b611c02816114a9565b840191505092915050565b6000604082019050611c226000830185611461565b8181036020830152611c348184611bd4565b90509392505050565b6000611c4882611457565b9150611c5383611457565b9250828203905081811115611c6b57611c6a611b36565b5b92915050565b6000602082019050611c866000830184611807565b92915050565b6000611c9782611457565b91507fffffffffffffffffffffffffffffffffffffffffffffffffffffffffffffffff8203611cc957611cc8611b36565b5b600182019050919050565b60008154611ce181611887565b611ceb8186611b99565b94506001821660008114611d065760018114611d1c57611d4f565b60ff198316865281151560200286019350611d4f565b611d25856118b8565b60005b83811015611d4757815481890152600182019150602081019050611d28565b808801955050505b50505092915050565b6000608082019050611d6d6000830187611461565b8181036020830152611d7f8186611cd4565b9050611d8e6040830185611461565b611d9b6060830184611461565b95945050505050565b600081905092915050565b50565b6000611dbf600083611da4565b9150611dca82611daf565b600082019050919050565b6000611de082611db2565b9150819050919050565b6000611df58261184d565b611dff8185611da4565b9350611e0f818560208601611baa565b80840191505092915050565b6000611e278284611dea565b915081905092915050565b7f4e487b7100000000000000000000000000000000000000000000000000000000600052601260045260246000fdfea2646970667358221220527d6cd7a3f892e9646004f6b1006b7f04a8e7c69417fcbfdb18c50b7d6fd1a664736f6c63430008180033",
  "linkReferences": {},
  "deployedLinkReferences": {}
}